:020000040000FA
:10000000D8290020B1010000B901000085010000DD
:1000100000000000000000000000000000000000E0
:10002000000000000000000000000000BD01000012
:100030000000000000000000030100005536000031
:10004000C3010000C3010000B52E0000C301000081
:10005000C3010000C3010000C3010000C301000090
:10006000C3010000C3010000C3010000C301000080
:10007000C3010000FD3700004D3A0000C30100003D
:10008000C3010000C301000000000000C301000024
:10009000792A0000C3010000C3010000C301000071
:1000A0005D0A0000C3010000C3010000C30100009D
:1000B000C3010000C3010000B1210000C301000022
:1000C0000448854600F0EEFA00480047C9060000E3
:1000D000C046C046D8290020EFF3108072B67047A2
:1000E00080F3108870472A4A1368012B03D001233C
:1000F0001360284A1060284A116028482849016086
:100100007047EFF3108272B62148016800291DD0B4
:10011000002101601F48016800290AD0EFF309811E
:10012000203900680160F0C144464D4656465F469E
:10013000F0C1194909680968F0C9F0B4F0C9A046CE
:10014000A946B246BB46F0BC81F3098882F3108809
:10015000042040420047104908600E490020086012
:100160000B49012008600F480F49026811430160E4
:100170000A480B4901600D480068006880F3088850
:1001800062B67047EFF3098000B504F095FE00BD3C
:1001900018010020100100201401002004ED00E0EF
:1001A0000000001020ED00E00000FF0008ED00E07E
:1001B0000448804704480047FEE7FEE7FEE7FEE705
:1001C000FEE7FEE775360000C100000030B50B46C3
:1001D000014600202022012409E00D46D5409D4221
:1001E00005D31D469540491B2546954040191546A7
:1001F000521E002DF1DC30BD70B5002425460028CC
:1002000001DA01244042002901DA01254942FFF7C1
:10021000DDFFAC4200D04042002C00D0494270BD0E
:1002200003460B439B0703D009E008C9121F08C00F
:10023000042AFAD203E00B780370401C491C521EBA
:10024000F9D27047D2B201E00270401C491EFBD2C5
:1002500070470022F6E710B513460A4604461946D1
:10026000FFF7F0FF204610BD30B505462A460B4685
:1002700010781C78521C5B1C002801D0A042F7D0DB
:10028000002C03D0002802D06D1CEFE7284630BDBB
:1002900070B502464A40D50F40004A00ED074008BD
:1002A0005208002814D0002A12D0C40DD30D4102E8
:1002B0000120C0055202490A520AE41A091812180C
:1002C0007D34914201D3641C00E04900002C01DA26
:1002D000002070BD0023914201D3891A03434008D6
:1002E00049000028F7D100290AD0914202D101210A
:1002F000C90705E0914201D2012101E00121C94372
:10030000E005C018401900F02DF970BDF0B50746A2
:100310000846584087B0C00F049048000E46590068
:1003200040084908BC1A884105D2384631461E4665
:1003300017460B4602465800400810434DD0300D7A
:10034000039040055900400D490D0590401A029058
:10035000402873DA18030121000B090508430190B6
:1003600004980092002806D01146019A49420020C4
:10037000904100910190029840210A1A0199009839
:1003800000F0BCF805460C466B4607CB00F0D7F8EA
:10039000C0197141039A0E0D0023D71756401A4613
:1003A0007A40164344D0049A002A2DD0029A012A9A
:1003B000039A15DC1205C01A914101263605001C6E
:1003C0007141D20F059ED2070093019202962A46F0
:1003D000234600F015F907B0F0BD38463146FAE77C
:1003E0001605234A0F46B218C01AB7410121090564
:1003F000001C4F4100187F41114618187941E20F47
:1004000010436D19644113E0E2076D081543640859
:10041000C2071443039A01261205C01A91413605FA
:10042000001C7141CE07400830434908C0185141B3
:100430002A46234600F0D7F8CDE7FFE704980122CB
:100440004000C117121A00238B4104983146C4178B
:10045000381AA141EEE730B40124E407634030BC10
:1004600054E730B40124E407614030BC4EE700009B
:100470000000E0FF10B500229623114600F07AF844
:1004800010BD00004A0009030123090B1B05194395
:10049000094B10B5520D9A4201DA002010BD064BEF
:1004A00034339A4203DC9A1A00F038F810BD03493D
:1004B0005118884010BD0000FF030000CDFBFFFF76
:1004C000C20FD207400040080BD0C10D0723DB014B
:1004D000C91840020905400A1143C20840071143E8
:1004E00070470020014670470122D207002800DB38
:1004F000101A002900DB511A8842704710B5202AD3
:1005000004DB0146203A9140002010BD9140202399
:100510009C1A0346E3401943904010BD10B5202AB1
:1005200004DB0846203AD040002110BD0B46D340E2
:10053000D0402024A21A91400843194610BD10B59E
:10054000202A06DBCB170846203A1041C1170B437F
:1005500006E00B461341D0402024A21A91400843E4
:10056000194610BD002904DA401C490001D1400899
:100570004000704770B40024050C05D1102400041D
:1005800002D1002921D01124050E01D10002083426
:10059000050F01D10001241D850F01D18000A41C8D
:1005A000002801DB4000641C002908D020252E1BF8
:1005B0000D46F540A14000D0012129430843010622
:1005C0001B1B000ADB1D02D5002070BC7047DB0539
:1005D000181880180029F8DA401C4900F5D170BCC1
:1005E00040084000704710B5002B08DA0024401C7A
:1005F000614192185B411A4301D14008400010BD8F
:10060000F0B51FB482B005460C0003D0084603F0D5
:10061000ABFE02E003F0A8FE203002460090214627
:100620002846FFF76BFF049B059A04460F461843C4
:100630001143084314D0184610431BD000984021A2
:100640000A1A18460599FFF769FF05460E46009AF3
:1006500005990498FFF752FF084305D0012004E0F4
:100660002046394607B0F0BD0020C11705430E43B0
:100670002C43374300990E986305401A7905E40A24
:1006800000220C43FD0A0A3002D500200146E9E7AA
:100690000105101969410C9C0D9D00196941FFF776
:1006A000A2FFDFE7064C0125064E05E0E36807CC14
:1006B0002B430C3C98471034B442F7D3FFF704FDAA
:1006C000246300004463000010B505F005FD002020
:1006D00010BD0000012806D10649096920221143F6
:1006E000044A116105E00349096920229143014A46
:1006F0001161704700FA01400146054A106900097E
:1007000000010A07120F1043014A106170470000F0
:1007100000FA0140012806D10649096880221143E8
:10072000044A116005E00349096880229143014AA7
:100730001160704700FA0140012806D10649096896
:1007400001221143044A116005E003490968490880
:100750004900014A1160704700FA01400146064A0B
:100760001068042302469A43104604220A401043AC
:10077000014A10607047000000FA0140014880689B
:1007800080B2704700FA014010B501210B4800F01B
:10079000B5FB012109030A4800F0CFF8012211033B
:1007A000074801F08CFD0121C903054800F0C5F898
:1007B0000122D103024801F082FD10BD07000001B3
:1007C000800C00400448C068C007C00F002801D05A
:1007D000012070470020FCE700FA01400120014998
:1007E000C860704700FA014010B5012000F036FAE9
:1007F00003F064FD012003F073FD022003F04EFDC1
:10080000012003F039FD0120FFF764FF0020FFF70E
:10081000A5FF054800F00AF80020FFF77BFF002045
:10082000FFF78AFF10BD0000FF0300004105490DDE
:10083000014A51607047000000FA014010B50024E1
:1008400000BFFFF7BFFF012801D1002010BD2046E7
:10085000641C401C0028F4D10120F7E770B5044661
:1008600000250B498988614308467D21C900FFF7AF
:10087000ADFC064606490620085E6421FFF7BCFC75
:100880003518E80FC007002800D00025284670BDA5
:1008900080FAFF1F7FB506460D4614466A46294674
:1008A000304601F03BFC0098A84227D16846C07949
:1008B000002823D1E007C00F002803D16846407903
:1008C00000281BD1E007C00F002803D068464079FC
:1008D000012813D102202040002803D168468079E6
:1008E00000280BD102202040002803D068468079E0
:1008F000012803D16846007902281DD00295002006
:100900006946C873E007C00F002801D1487302E0B0
:1009100001206946487302202040002802D1694620
:10092000887302E0012069468873022069460873D3
:1009300002A9304601F07CFC7FBD7FB505460C4620
:100940006A462146284601F0E9FB0098A0420FD1F3
:100950006846C07900280BD168464079002807D145
:1009600068468079002803D16846007903280BD0B7
:10097000029400216846C17341738173032101739E
:1009800002A9284601F054FC7FBD0A468168890807
:10099000890093079B0F194381607047012904D197
:1009A000026880231A43026003E0026880239A43AE
:1009B0000260704710B50A46016810240B46A34335
:1009C0001946102313401943016010BD10B50A46A3
:1009D000016820240B46A3431946202313401943E2
:1009E000016010BD10B50A46416830240B46A34390
:1009F0001946302313401943416010BD10B50A4613
:100A0000416880240B46A3431946802313401943B1
:100A1000416010BD012904D1426804231A43426099
:100A200003E0426804239A4342607047012904D1DD
:100A3000C26B10231A43C26303E0C26B10239A43B4
:100A4000C2637047012904D1C26B04231A43C263F5
:100A500003E0C26B04239A43C263704710B5134886
:100A600000F028F801280CD1104800F030F80F48A9
:100A700000F02AF800210D48FFF790FF01200C49F3
:100A800008600A48443000F015F801280CD10748E6
:100A9000443000F01CF80548443000F015F80021FF
:100AA00002484430FFF77AFF10BD000000300140DB
:100AB0007C0000200146086C10221040002801D064
:100AC000012070470020FCE71021016470470821D5
:100AD00001647047012904D1426910231A4342611D
:100AE00003E0426910239A4342617047012904D10F
:100AF000426901231A43426103E0426952085200ED
:100B000042617047CAB282627047CAB2426270479D
:100B1000CAB202617047000070B504460E463948FB
:100B2000844204D037484430844200D070BD3548F8
:100B3000844204D10121344800F0E0F904E00121AD
:100B40003148401C00F0DAF900212046FFF73EFF53
:100B500010212046FFF72EFF00212046FFF74EFF11
:100B600000212046FFF711FF28487043C5B2FF213E
:100B70002046FFF7CDFF29462046FFF7C6FF291282
:100B80002046FFF7BFFF00212046FFF72BFF002183
:100B90002046FFF73FFF2046FFF796FF0121204642
:100BA000FFF7A4FF01212046FFF794FF182000283B
:100BB00009DBC206D20E01219140154A1160BFF334
:100BC0004F8FBFF36F8F00BF0321182003F03EFD4E
:100BD000182000280ADB00BF00BFC206D20E012188
:100BE00091400B4A803A116000BF00BF00BF012155
:100BF0002046FFF71BFF01212046FFF723FF00BF20
:100C000094E700000030014001000004350C0000B2
:100C100080E100E010B504460648844204D005484F
:100C20004430844200D010BD01212046FFF7B6FEBB
:100C300000BFF8E70030014010B504460648844282
:100C400004D005484430844200D010BD0021204625
:100C5000FFF7A4FE00BFF8E700300140012803D1F0
:100C60000A21034A116002E00521014A1160704720
:100C700000E0014000B5024600230020D060106172
:100C800010605060906000F0A3F9012807D100F0D7
:100C900087F903461B0C581C3B494843D06000F0C1
:100CA00061F901280ED100F071F903461B0C581CA4
:100CB00036494843106100F061F9082802D11069F3
:100CC0004000106100F0FCF9034600BF002B06D085
:100CD000012B07D0022B08D0032B0DD108E0D068E0
:100CE00010600CE02848106009E01069106006E010
:100CF0000120C003106002E0D068106000BF00BF98
:100D000000F09AF903461B0A042B06D0052B08D0E5
:100D1000062B0AD0072B10D10BE01068400850605A
:100D20000EE01068800850600AE01068C00850604B
:100D300006E010680009506002E01068506000BFD3
:100D400000BF00F091F903461B0C042B06D0052BC5
:100D500008D0062B0AD0072B10D10BE050684008B2
:100D600090600EE05068800890600AE05068C0080B
:100D7000906006E050680009906002E05068906062
:100D800000BF00BF00BD000000127A0040420F000B
:100D900010B50446012C02D11148036813E0022C5F
:100DA00003D10F484038C36B0DE0032C03D10C482E
:100DB0004038836B07E0042C03D109484038436B6B
:100DC00001E007480368180CD94389B2884203D16F
:100DD000D8B200F01BF902E06B2000F017F910BD4B
:100DE00040FBFF1F012806D10649096BC2071143CA
:100DF000044A116305E00349096B49004908014AA7
:100E000011637047002400400146064A106B130529
:100E100002469A4310461A460A401043014A10639C
:100E20007047000000240040012806D10749096BE3
:100E300002021143054A116306E00449096BFF22CF
:100E400001329143014A11637047000000240040C1
:100E50000146054A106B800880008A07920F1043F4
:100E6000014A10637047000000240040012806D1A9
:100E70000749096B42021143054A116306E0044920
:100E8000096B012252029143014A1163704700002D
:100E9000002400400146064A106B0C2302469A4388
:100EA00010460C220A401043014A106370470000AC
:100EB00000240040012806D10749496B0203114371
:100EC000054A516306E00449496B0122120391432C
:100ED000014A516370470000002400400146064A61
:100EE000506B03231B0202469A4310461A460A40DF
:100EF0001043014A506370470024004030B5024659
:100F00000B4600200F2424061440FF252D066419EB
:100F1000002C09D06419002C08D06419002C08D0CA
:100F20006419002C0BD107E00D4809E00C48001DA6
:100F300006E00B48083003E009480C3000E000BF31
:100F400000BF00280BD092B201219140002B03D0AA
:100F500004680C43046002E004688C43046030BD04
:100F60002024004004480069C007C00F002801D0B9
:100F7000012070470020FCE700240040024800697F
:100F80000821084070470000002400400248006922
:100F90000249084070470000002400400000FF03A1
:100FA000024840680F2109040840704700240040AF
:100FB0000146064A50680F231B0402469A43104616
:100FC0001A460A401043014A50607047002400400E
:100FD00004484068C007C00F002801D001207047B6
:100FE0000020FCE700240040012806D1064949689A
:100FF00001221143044A516005E003494968490848
:101000004900014A51607047002400400146044AEB
:101010009068000A0002CAB21043014A906070470B
:101020000024004010B504462068FFF7C1FF207976
:10103000FFF7DAFF10BD000002480068072109022F
:1010400008407047002400400146064A1068072304
:101050001B0202469A4310461A460A401043014AB0
:10106000106070470024004002480068072109040E
:1010700008407047002400400146064A10680723D4
:101080001B0402469A4310461A460A401043014A7E
:101090001060704700240040012806D10749096804
:1010A00042061143054A116006E00449096801221D
:1010B00052069143014A116070470000002400402D
:1010C000024800684007400F7047000000240040BD
:1010D0000146054A1068C008C0004A07520F104375
:1010E000014A1060704700000024004010B504461B
:1010F0002068FFF7EDFF6068FFF7A6FFA068FFF725
:10110000BBFF207BFFF7C8FF10BD000010B5002417
:101110000120F749087000BF01210903F54801F0DB
:10112000CAF88021F348803801F0C5F8F24802F08F
:10113000B1FF0121F04802F059FF0020EF4908807B
:10114000EF490880EF4804F031FDEFA1F048FFF7C8
:101150008BF8002801D1EF4810BD01214902EC486D
:101160001438FFF776F80020E4490880E449088045
:1011700000BF0020E8490860E848FFF74BFD312038
:1011800002F092F800BFE6A1E1481438FFF76CF8CE
:10119000002801D1012000E00020DF490968002972
:1011A00001D1012100E0002108400028EBD1DB48FB
:1011B000FFF742FDDCA1D6481438FFF755F80028A8
:1011C00007D1032C03DA01F085FF641CA4E701209A
:1011D000C2E701214902CE481438FFF73AF800204F
:1011E000C7490880C5490880CB490860CB48FFF74C
:1011F00011FD432002F058F800BFC9A1C4481438BB
:10120000FFF732F8002801D1012000E00020C24998
:101210000968012901D0012100E0002108400028CF
:10122000EBD1BE48FFF708FDBDA1B9481438FFF760
:101230001BF8002801D10A208EE71422B449491E68
:10124000BB48FEF7EDFF01214902B1481438FFF712
:1012500000F80020A9490880A9490880AE49086023
:10126000AE48FFF7D7FC322002F01EF800BFACA159
:10127000A7481438FEF7F8FF002801D1012000E04C
:101280000020A5490968012901D0012100E00021C1
:1012900008400028EBD1A148FFF7CEFCA0A19C4854
:1012A0001438FEF7E1FF002801D1022054E70121A4
:1012B000490297481438FEF7CCFF00208F49088078
:1012C0008F490880944908609448FFF7A3FC3320B5
:1012D00001F0EAFF00BF92A18D481438FEF7C4FF69
:1012E000002801D1012000E000208B490968012974
:1012F00001D0012100E0002108400028EBD18748FF
:10130000FFF79AFC86A182481438FEF7ADFF00284B
:1013100001D1032020E7012149027D481438FEF75E
:1013200098FF002075490880754908807A4908604F
:10133000342001F0B9FF7948FFF76CFC00BF78A1B9
:1013400073481438FEF790FF002801D1012000E017
:10135000002071490968012901D0012100E0002124
:1013600008400028EBD16D48FFF766FC6CA1684887
:101370001438FEF779FF002801D10420ECE60121A2
:10138000490263481438FEF764FF00205B49088077
:101390005B490880604908606048FFF73BFC3520E6
:1013A00001F082FF00BF5EA159481438FEF75CFFD0
:1013B000002801D1012000E00020574909680129D7
:1013C00001D0012100E0002108400028EBD1534862
:1013D000FFF732FC52A14E481438FEF745FF0028B3
:1013E00001D10520B8E60020524908704848143859
:1013F000C07B0001097840184E49087044481438F1
:10140000007C3038097840184A49087001214902A7
:101410003F481438FEF71DFF00203849088038493E
:101420000880362001F040FF00203B4908603B481F
:10143000FFF7F0FB00BF3AA135481438FEF714FF60
:10144000002801D1012000E000203349096801296A
:1014500001D0012100E0002108400028EBD12F48F5
:10146000FFF7EAFB0121490229481438FEF7F1FE93
:101470000020224908802249088027480068002867
:101480005AD0422001F010FF002023490860234871
:10149000FFF7C0FB00BF22A11D481438FEF7E4FE91
:1014A000002801D1012000E000201B490968012922
:1014B00001D0012100E0002108400028EBD11748AD
:1014C000FFF7BAFB16A112481438FEF7CDFE00282C
:1014D00001D1092040E6012149020D481438FEF7E8
:1014E000B8FE0020054908800549088041E6000053
:1014F00079000020400D004000740140640000208D
:1015000062000020B80B00005244590D0A00000090
:1015100034150020E70300007C000020003001406B
:101520004F4B0D0A0000000052454144590D0A007E
:10153000201D00208000002000BF002036490860E8
:10154000372001F0B1FE3548FFF764FB00BF34A13E
:101550003548FEF789FE002801D1012000E0002077
:101560002D490968012901D0012100E0002108402E
:101570000028ECD12948FFF75FFB2CA12A48FEF791
:1015800073FE012149022848FEF763FE00202B4923
:1015900008802B49088020480068002832D00020AD
:1015A0001D490860412001F07FFE1C48FFF732FB17
:1015B00000BF24A11C48FEF757FE002801D10120DE
:1015C00000E0002014490968012901D0012100E050
:1015D000002108400028ECD11048FFF72DFB1BA18B
:1015E0001148FEF741FE002801D10820B4E5012191
:1015F00049020D48FEF72DFE0020104908801049D1
:1016000008809AE70020124908702021114800F054
:1016100054FE0020A0E500007C00002000300140C6
:101620002C300D0A00000000201500202B51494FDE
:1016300050454E3A20302C300D0A00006400002046
:10164000620000202C4F4B0D0A0000004F4B0000A1
:1016500079000020400D00400320012189074860E7
:10166000704700B585B00120FFF7F8FA012001F0BE
:10167000DBFA002001F0C8FA012001F0B3FA0020E3
:1016800002F02EFE0020FFF7E9FA0220009000028F
:101690000190002069460872039003200490684678
:1016A00001F068FA01F078F830BF01F075F8002019
:1016B00001F098FA05B000BD10B500201E49086081
:1016C000412001F0F1FD1D48FFF7A4FA00BF1CA165
:1016D0001D48FEF7C9FD002801D1012000E00020CF
:1016E00015490968012901D0012100E000210840C5
:1016F0000028ECD11148FFF79FFA01214902124856
:10170000FEF7A7FD0020114908801149088001213A
:101710000903104800F0D1FD80210E48803800F008
:10172000CCFD20210B4800F0C6FD00200A490870BE
:10173000FFF797FF10BD00007C0000200030014043
:101740002C4F4B0D0A0000002015002064000020E3
:1017500062000020400D0040780000204AE026484A
:10176000007801281BD1811E2448006803F031FF56
:101770000546002D3ED122480478012021490870F9
:10178000012C37D0022C35D0032C33D0042C31D08F
:10179000052C01D0062C2DD100F076F82AE0164851
:1017A0000078002826D1411E1448006803F011FF7C
:1017B0000546002D1ED112480478012011490870F9
:1017C000012C01D0022C0BD1FFF7A0FC002803D183
:1017D00001200D4908700DE002200B49087009E056
:1017E000032C07D0042C05D0052C01D0062C01D1E8
:1017F00000F04AF8B3E70000500000201C00002071
:101800004100002040000020780000207CB518A195
:1018100003C9019100900820174908700846027812
:1018200069461648FEF7FCFC00201449087202F0D5
:10183000D3F90021C9431248006803F0CAFE0446E8
:10184000002C12D10F48007F0002010909010D4848
:10185000C07E081885B23B210A48203803F06EF993
:10186000A84201D0601E7CBD00BF0020FBE7000045
:1018700003030078001CC5F86D000020201B002029
:10188000700000204019002070B588B0142103A812
:10189000FEF7DFFC25480068029025A103C90191ED
:1018A00000900820244908700846027869462348B9
:1018B000FEF7B6FC00202149087202F08DF90021E4
:1018C000C9431F48006803F084FE0546002D2BD154
:1018D0001C480088401E1C49085C000201090901DF
:1018E00018480088801E184A105C081886B21548EF
:1018F0000088811E104603F021F900240EE06000EC
:1019000009301149085C610002AA505460000A3095
:101910000D49085C610089184870641C0C2CEEDBD2
:1019200002A801F019FE00BF08B070BD50610000B0
:101930000303076E0010254D6D000020201B0020C2
:10194000700000206A000020201900203EB50446E7
:101950000E4A07CA6B4607C368460472092103F0A2
:10196000EDF80546684645722812694688720B20D4
:10197000074908700846027869460648FEF750FC99
:1019800000200449C87202F027F93EBD5C610000E6
:101990006D000020201B002010B586B016A30FCBD1
:1019A0006C460FC404A801F033FA6846017CC1718B
:1019B000417C0172817C4172C17C8172017DC17266
:1019C000417D01730D2103F0B9F804466846447364
:1019D0002012694688730F200B4908700846027868
:1019E00069460A48FEF71CFC00200849C87302F04B
:1019F000F3F806B010BD00000310012C000306240C
:101A0000111119200693B5006D000020201B002045
:101A100010B501208007FFF7F7F90120FFF7E2F981
:101A200001211F48FFF76AFA012204211D4800F036
:101A30006DFF00220121C9021A48403800F066FFFC
:101A4000012302220421174800F01CFA012300227E
:101A5000D9021448403800F015FA1E20002809DB8E
:101A6000C206D20E012191400F4A1160BFF34F8F81
:101A7000BFF36F8F00BF02211E2002F0BBFC1E20AF
:101A800000280ADB00BF00BFC206D20E0121914030
:101A9000054A803A116000BF00BF00BF10BD0000C2
:101AA00007000001400C004080E100E00146054ACB
:101AB0001068800880008A07920F1043014A106066
:101AC000704700000010004010B501213348FFF7B7
:101AD00015FA0021324801F03AFBFF21013130486C
:101AE00001F04EFB00212E4801F057FB00212C484D
:101AF00001F00CFB00212A4801F036FB00212848A8
:101B000001F019FB0021264801F00CFB00212448BC
:101B100001F08EFB0021224801F065FB00212048E6
:101B200001F047FB00211E4801F050FB00211C483A
:101B300001F072FB00211A4801F092FB00211848C5
:101B400001F09AFB0021164801F07EFB144801F0D9
:101B5000A5FB134801F09CFB114801F09CFB1048C9
:101B600001F09FFB01210E4801F04AFB00224021B9
:101B70000C48FEF78FFE002280210A48FEF78AFEFD
:101B80000022FF2101310748FEF784FE00220121D7
:101B900049020448FEF77EFE10BD0000010000036C
:101BA00000080140800C0040F7B503460D460021B7
:101BB000002207E0012696402E40002E01D011465B
:101BC00002E0521C102AF5D300BF102A00D1FEBD3E
:101BD000314FDE1BBB4211D008DC304E9E19002E67
:101BE00009D0402E08D0802E51D106E0402E06D0DC
:101BF000802E4CD104E000BF00BF00BF00BF00BF7B
:101C0000254E4036B34203D0234E8036B34202D134
:101C10000B2903D93CE00F2900D939E0032901D869
:101C200000200CE0042903D3072901D8012006E095
:101C3000082903D30B2901D8022000E00320164E07
:101C4000803EB34200D1001D134E403EB34200D14E
:101C50000830114EB34200D10C300F4E4036B34223
:101C600000D110300C4E8036B34200D114300C4EEF
:101C70003469029E012E02D18640344304E00126DD
:101C800086402746B7433C46054E346100E000BF1E
:101C900000BF00BF9BE70000C00C004000F4FFBF86
:101CA000C00D0040F0B502460D4600230027002479
:101CB00007E00120A0402840002801D0234602E090
:101CC000641C102CF5D300BF102C01D13846F0BD98
:101CD0002E4E901BB24211D008DC2D48101800285F
:101CE00009D0402808D080284CD106E0402806D0F2
:101CF000802847D104E000BF00BF00BF00BF00BF85
:101D000022484030824203D020488030824202D1B3
:101D10000B2B03D937E00F2B00D934E0032B01D86C
:101D200000210CE0042B03D3072B01D8012106E08E
:101D3000082B03D30B2B01D8022100E00321134809
:101D40008038824200D1091D10484038824200D1BB
:101D500008310E48824200D10C310C48403082429A
:101D600000D1103109488030824200D11431094835
:101D7000406901268E40304001268E40B04200D19D
:101D8000012700E000BF00BF3846A0E7C00C0040BC
:101D900000F4FFBFC00D0040F0B502460C46002124
:101DA000002307E001269E402640002E01D0194660
:101DB00002E05B1C102BF5D300BF102B00D1F0BD4F
:101DC0002D4FD61BBA4211D008DC2C4E9619002E8E
:101DD00009D0402E08D0802E49D106E0402E06D0F2
:101DE000802E44D104E000BF00BF00BF00BF00BF91
:101DF000214E4036B24203D01F4E8036B24202D14D
:101E00000B2903D934E00F2900D931E0032901D887
:101E100000200CE0042903D3072901D8012006E0A3
:101E2000082903D30B2901D8022000E00320124E19
:101E3000803EB24200D1001D0F4E403EB24200D162
:101E400008300D4EB24200D10C300B4E4036B2423B
:101E500000D11030084E8036B24200D11430084E06
:101E60007569012686403543054E756100E000BF67
:101E700000BF00BFA3E70000C00C004000F4FFBF9C
:101E8000C00D0040F8B505460E4617461C46032215
:101E90003146284600F022F83146284600F0A4F8E2
:101EA000224631462846FFF77FFE3A46314628460D
:101EB00000F014F8C82001F093FC31462846FFF7E3
:101EC0006BFF1E20002805DBC206D20E01219140C7
:101ED000014A116000BFF8BD80E200E0F7B503469B
:101EE00015460021002408E00126A640019F3E403F
:101EF000002E01D0214602E0641C102CF4D300BF58
:101F0000102C00D1FEBD354FDE1BBB4211D008DCCA
:101F1000334E9E19002E09D0402E08D0802E58D165
:101F200006E0402E34D0802E53D132E000BF00BFF7
:101F300000BF0F2900D94DE0032901D800200CE093
:101F4000042903D3072901D8022006E0082903D376
:101F50000B2901D8042000E00620204E803EB34229
:101F600000D108301D4E403EB34200D110301B4E10
:101F7000B34200D118301B4EB26803268640174684
:101F8000B7433A462E4686403243164EB26021E0B1
:101F900000BF0B2900D91DE0032901D8002006E06D
:101FA000042903D3072901D8022000E004200B4EA6
:101FB0008036B34200D108300A4EF26803268640CC
:101FC0001746B7433A462E4686403243054EF260E6
:101FD00000BF00BF00BF00BF94E70000C00C00407E
:101FE00000F4FFBFC00D0040F0B502460D460020D2
:101FF000002407E00126A6402E40002E01D02046F6
:1020000002E0641C102CF5D300BF102C00D1F0BDF1
:102010003F4FD61BBA4234D008DC3E4E9619002EF4
:102020002CD0402E2BD0802E6ED129E0402E02D015
:10203000802E69D100E000BF0B2800D965E003289D
:1020400001D8002106E0042803D3072801D8022183
:1020500000E004212E4E8036B24200D108318007C4
:10206000800F2D4E736803268E401F46B7433B46B4
:1020700006468E403343284E736046E000BF00BFE3
:1020800000BF234EC03EB24207D0214E803EB24236
:1020900003D01F4E403EB24202D10F2800D934E097
:1020A0001B4EB24202D10B2800D92EE0032801D8E2
:1020B00000210CE0042803D3072801D8022106E000
:1020C000082803D30B2801D8042100E00621104E74
:1020D000803EB24200D108310D4E403EB24200D1A6
:1020E00010310B4EB24200D118318007800F0A4EDA
:1020F000336803268E401F46B7433B4606468E4054
:102100003343054E336000E000BF00BF00BF7EE7F1
:10211000C00C004000F4FFBFC00D0040F0B5044605
:102120000025002307E001269E400E403546002D85
:1021300000D002E05B1C102BF5D300BF102B36D271
:102140001D46116026680E403046E840012802D145
:102150000126D67101E00026D67166680E40EE4079
:102160003046012801D1967101E000269671A668DB
:102170000E40EE403046012801D1567101E00026A4
:102180005671E6686F00FE40B007800F002802D14C
:10219000002616710BE0012802D10126167106E017
:1021A000022802D10226167101E003261671F0BD45
:1021B00010B504211848FFF775FD01280ED1042140
:1021C0001548FFF7E9FD0421134800F06AF81349A8
:1021D00008701348006803F0BFFE1CE00121C9022B
:1021E0000D484038FFF75EFD012814D1C1020A48AE
:1021F0004038FFF7D1FD0B480078002806D00020BA
:10220000094908700948006803F0A6FE06480078EE
:10221000401C0549087010BD400C0040080000201B
:102220000C00002040000020410000201000002091
:10223000F0B502460B4600210024002500BF2DE02A
:1022400001268E4034461E6826403546A54224D1DC
:1022500010680646A6433046DE798E403043106053
:1022600050680646A64330469E798E403043506003
:1022700090680646A64330465E798E4030439060B3
:102280004F000326BE403446D0680646A64330467B
:102290001E794F00BE403043D060491C1029CFD377
:1022A000F0BD02460020D3690B40002B01D0012075
:1022B00000E000207047816170474161704710B5B0
:1022C0001346826A012B03D114460C43224602E0D6
:1022D00014468C432246826210BD10B51346026A32
:1022E000012B03D114460C43224602E014468C43D2
:1022F0002246026210BD000030B50D480488012C52
:1023000012DD601E0B49085C000201090901A01ED4
:10231000084A105C081885B2A11E104602F00EFC97
:10232000A84201D1002030BD0020C043FBE70000DF
:102330006400002020150020C4B00026FF20F530E6
:1023400003F034FC8BE1C64800780028FAD0C54879
:102350000078012806D1811EC348006803F039F9CE
:10236000054609E0BF480078002805D1BF49BE48AE
:10237000006803F02EF905460120C043854206D1CE
:10238000B7480078012801D1FFF796F964E1002DE4
:10239000FCD1FFF7B1FF0028F8D1FF220132B44988
:1023A00001A8FDF73DFF0020B2490880B24908802E
:1023B000012000287ED06846807912287BD006DC78
:1023C000052809D0082830D011282DD12EE0132857
:1023D00072D01728F9D1D3E06946C879FFF7B6FA69
:1023E000002D21D1382000F05FFF00BFA348007806
:1023F0003E28FBD10720A24908703E20A149087061
:1024000006204870052088706846C079C87004218D
:102410009C4802F093FB9B490C712004000E48710C
:102420001A20887101F0EEFA13E112E100BFFFF704
:10243000EDF900284FD1382000F036FF00BF8F485B
:1024400000783E28FBD152208D4908703E208D49EE
:102450000870512048701120887026228A498948C6
:102460001930FDF7DDFE0C2287492C3185484330B9
:10247000FDF7D6FE4F21834802F060FB81484030D3
:10248000C4732004010E7F48403001741A21417446
:1024900001F0B8FA7348007800281CD173497248DB
:1024A000006803F096F805460120C04385420BD131
:1024B000012E02E0CFE00FE015E001DA761CB6E76E
:1024C0000026FFF7F9F806E0002D04D10026664843
:1024D000006803F060F8BCE062480078002801D191
:1024E000FFF7EAF8B5E0382000F0DEFE00BF6348F1
:1024F00000783E28FBD16846C17940A80172684641
:10250000017A40A841726846417A40A881726846C3
:10251000817A40A8C1726846C17A40A801736846B2
:10252000017B40A8417342A800F03AFDFFF734FA5E
:1025300056495748006803F04CF805466846417B09
:1025400040A801716846817B40A841716846C17B03
:1025500040A88171419800F0B9FB062048490870F5
:102560003E2048490870052048701320887052208A
:10257000C870912008711A20487101F043FA68E090
:10258000002037490870434908604348FEF742FB82
:10259000352000F089FE00BF40A13548FDF764FEFC
:1025A000002801D1012000E000203A4909680129F2
:1025B00001D0012100E0002108400028ECD136487C
:1025C000FEF73AFB35A12A48FDF74EFE00203549BB
:1025D00008702748C07B000109784018314908700D
:1025E0002348007C3038097840182E4908700121B2
:1025F00049021F48FDF72DFE00201E4908801E4994
:102600000880012016490870382000F04DFE00BFF8
:102610001A4800783E28FBD10820194908703E204E
:102620001849087007204870172088701D480078E6
:10263000C870992008710521124802F07FFA1149EB
:102640004C712004000E88711A20C87101F0DAF96B
:1026500000BF00BF00BF00BF0A2003F0A7FA72E668
:10266000780000205000002020000020983A000050
:102670002015002064000020620000207600002069
:10268000670000202017002023190020B80B00004D
:10269000700000207C000020003001404F4B0D0AEC
:1026A000000000008000002010B52020374908609D
:1026B000012008710020C871487188713448FFF703
:1026C000B7FD0121490332488038FFF7F4FDFF20B0
:1026D00001302E4908602E48FFF7AAFDFF21013185
:1026E0002B48FFF7EAFD0120284908602948FFF739
:1026F0009FFD01212748FFF7DEFDFF200130234920
:10270000086023484030FFF793FDFF210131204846
:102710004030FFF7D0FD40201C4908601C48403085
:10272000FFF786FD20201949086019484030FFF75F
:102730007FFDFF21013116484030FFF7BEFD8020AC
:102740001249086012484038FFF772FD8021104896
:102750004038FFF7B2FD012000030C4908600C4827
:102760004030FFF765FD0121090309484030FFF7BC
:10277000A4FD04200549086000200871012088712B
:10278000C87104484030FFF753FD10BD58000020C9
:10279000000D0040000C00400148024908607047ED
:1027A0005A5A34120014014010B501210448FEF7B2
:1027B000A5FB062003494860FFF7EEFF10BD0000AF
:1027C00005000001001401401CB50020009001200C
:1027D000694608716846FEF725FC0120FEF7D8FA25
:1027E0001CBD00000A20054908600548008CC0B2E5
:1027F0000449C861052001490860704700E00140B4
:1028000000FBFF1F00F801401FB500200090019061
:1028100002900120694608736846FEF767FC1FBDF9
:1028200010B50020FFF742F9FFF7CEFFFFF7DAFF00
:10283000FFF7EAFF10BD000010B50F480068C02187
:1028400088430D49086001242406601E0146884221
:1028500000D90CE0601E094948610321081F01F0FE
:10286000C9FD0020054988610720086100BF0520D7
:102870000249086110BD00000024004000E000E0B3
:1028800008B572B6FFF790FFFFF786FFFFF7D4FF9A
:1028900000210A2000F090FFFFF7C2FF012000F0A6
:1028A000C3F9062000F08EF9002000F09BF9FEF736
:1028B000D3FEFFF7ADF800F03FFBFFF7F5FE00F0A9
:1028C000F7F8FFF701F9002003460122E121490250
:1028D00000900C4801F004FC0A4801F0F5FB0020D0
:1028E000034601224B21C9010090074801F0F8FB83
:1028F000054801F0E9FB0021642000F05DFF62B6AD
:1029000008BD000000740140007801407FB5064614
:102910000D4614466A4629463046FFF7FFFB0098ED
:10292000A84217D16846C079012813D1684640797A
:1029300001280FD1002C03D168468079002809D1E5
:10294000012C03D168468079012803D168460079BB
:10295000002814D0029501216846C1734173002CF0
:1029600003D100206946887302E00120694688731C
:1029700000206946087302A93046FFF759FC7FBD65
:102980000149C86070470000003401400146064A12
:10299000106807239B0202469A4310461A460A40D3
:1029A0001043014A1060704700340140012806D1ED
:1029B0000749096802061143054A116006E0044907
:1029C0000968012212069143014A11607047000014
:1029D000003401400146064A1068042302469A4327
:1029E000104604220A401043014A1060704700005C
:1029F000003401400146064A106801239B03024649
:102A00009A4310461A460A401043014A1060704724
:102A1000003401400146054A1068800880008A079A
:102A2000920F1043014A10607047000000340140CB
:102A3000012806D10649896901221143044A91619E
:102A400005E00349896949084900014A91617047D5
:102A500000340140012806D106490969402211438A
:102A6000044A116105E00349096940229143014A82
:102A7000116170470034014010B500F007F80128DB
:102A800003D100F00FF801F04BFC10BD0448406981
:102A900040210840002801D0012070470020FCE7B9
:102AA0000034014040200149486170470034014032
:102AB00010B50120134908710020C8714871887150
:102AC000114808601148FFF7B3FB0F490F48FFF7A3
:102AD000F2FB0F480B4908600C484030FFF7A8FB99
:102AE0000B490A484030FFF7E6FB0A4805490860F1
:102AF00006488030FFF79CFB064904488030FFF70A
:102B0000DAFB10BD58000020F0E40000000C00408B
:102B1000F3FF0000FFEF00000146064A106893151E
:102B200002469A4310461A460A401043014A106072
:102B300070470000002000400146054A10688008E8
:102B400080008A07920F1043014A1060704700000E
:102B5000002000400146064A1068531502469A4379
:102B600010461A460A401043014A106070470000A0
:102B70000020004010B504466068FFF7EBFF207AA4
:102B8000FFF7CAFF012149026068884202D120692B
:102B900000F00AF80349E06808612068FFF7CCFFFD
:102BA00010BD000000ED00E00146054A50688008B5
:102BB00080008A07920F1043014A5060704700005E
:102BC000002000400146064A5068062302469A4308
:102BD000104606220A401043014A50607047000028
:102BE00000280040012806D1064949680122114306
:102BF000044A516005E00349496849084900014A0F
:102C000051607047002800400146064A10680623BC
:102C100002469A43104606220A401043014A1060B9
:102C20007047000000280040012806D106490968C5
:102C300001221143044A116005E00349096849086B
:102C40004900014A11607047002800400146064AC9
:102C5000906A3F231B0402469A4310461A460A40D4
:102C60001043014A90627047001001400146064A35
:102C7000906A7F231B0202469A4310461A460A4076
:102C80001043014A90627047001001400146054A16
:102C9000906AC009C0014A06520E1043014A906270
:102CA0007047000000100140012806D10649896ADA
:102CB000C2071143044A916205E00349896A490049
:102CC0004908014A916270470010014001B5002097
:102CD000FFF7EAFF002000F0C7F8684600F00CF8A4
:102CE00000F010F9012000F0BFF80120FFF7DCFF31
:102CF000012000F07BF808BD10B50446A078FFF76E
:102D0000C5FF61780802FFF7B1FF21780804FFF7DB
:102D10009DFF10BD024880698006800E704700004C
:102D2000001001408106890E014A91617047000040
:102D300000100140024840698006800E7047000084
:102D4000001001408106890E014A51617047000060
:102D500000100140024800694006400E7047000024
:102D6000001001404106490E014A11617047000000
:102D7000001001400248006AC006C00E7047000003
:102D800000100140C106C90E014A116270470000DF
:102D9000001001400248C0684006400E7047000025
:102DA000001001404106490E014AD1607047000001
:102DB000001001400248C0694007400F7047000002
:102DC000001001404107490F014AD16170470000DE
:102DD000001001400148406AC0B270470010014035
:102DE000C1B2014A5162704700100140012806D16A
:102DF0000649C96B01221143044AD16305E0034926
:102E0000C96B49084900014AD1637047401001402D
:102E1000F0B585B00646012700251EE002A800F0A7
:102E2000EFF8684600F0ECF8002408E002A8005D26
:102E30006946095D884200D003E0601CC4B2072CDB
:102E4000F4DB00BF072C06D10027072202A9304679
:102E5000FDF7E6F903E0681CC5B2032DDEDB00BF19
:102E6000384605B0F0BD0000012806D10749496881
:102E7000C2021143054A516006E004494968012233
:102E8000D2029143014A5160704700000010014096
:102E9000012806D10649496808221143044A5160B5
:102EA00005E00349496808229143014A516070478F
:102EB0000010014010B500F02DF8012804D1084899
:102EC000FFF7A6FF00F032F800F00EF8012805D158
:102ED00000F018F80348006802F05DFB10BD000028
:102EE0005100002024000020054880680121C9020B
:102EF0000840002801D0012070470020FCE70000B6
:102F0000001001400120C0020149886070470000A4
:102F1000001001400448806808210840002801D0C2
:102F2000012070470020FCE7001001400820014903
:102F3000886070470010014010B501211648FDF768
:102F4000DDFF002000F0AEF8FFF7F0FF0020FFF7F4
:102F50009FFF0220002809DBC206D20E012191400A
:102F60000E4A1160BFF34F8FBFF36F8F00BF022176
:102F7000084601F02FFB022000280ADB00BF00BF3B
:102F8000C206D20E01219140044A803A116000BF6E
:102F900000BF00BF10BD00000200000180E100E0A2
:102FA000FEB50546002622E0134800F08DF82846BD
:102FB00000F03EF8114800F087F86846FFF728FF58
:102FC0000746002F11D10127002407E06846005D65
:102FD000295D884200D003E0601CC4B2072CF5DBF9
:102FE00000BF072C01D1002703E0701CC6B2032EDE
:102FF000DADB00BF3846FEBDACACACACAA55AA5576
:1030000000B50146FFF7C6FE4871FFF7A3FE087141
:10301000FFF790FEC870FFF77DFE8870FFF7AAFEED
:103020004870FFF7D7FE0870FFF7C4FE887100BD37
:1030300000B503465879FFF7B5FE1879FFF792FE01
:10304000D878FFF77FFE9878FFF76CFE5878FFF787
:1030500099FE1878FFF7C4FE9879FFF7B3FE00BD1C
:1030600019E00021C9430C48006802F0B2FA044696
:10307000002C10D10948007801280AD008480078AF
:10308000002806D1FEF742F8002802D101200349AA
:103090000870FEF7F9FBE4E7240000207800002028
:1030A00079000020012806D10649896B01221143CD
:1030B000044A916305E00349896B49084900014AC4
:1030C000916370470010014001490860704700009B
:1030D0000010014010B5012109030B48FFF7EDF87E
:1030E000802109488038FFF7E8F87D20000102F0D0
:1030F0005DFD012109030448FFF7DDF88021024846
:103100008038FFF7D8F810BD400D004010B50A46D2
:10311000016838240B46A34319463823134019434A
:10312000016010BD0A46016849084900D307DB0F5A
:1031300019430160704710B50A46016802240B4626
:10314000A3431946022313401943016010BD10B573
:103150000A4601680124E4020B46A34319462346AC
:1031600013401943016010BD10B50A4601680424DC
:103170000B46A3431946042313401943016010BDB5
:1031800010B50A460168FF2401340B46A3431946D3
:10319000234613401943016010BD10B50A4601686B
:1031A000C0240B46A3431946C023134019430160B2
:1031B00010BD10B50A464168032464020B46A343C0
:1031C0001946234613401943416010BD10B50A4605
:1031D0004168FF2401340B46A3431946234613409C
:1031E0001943416010BD012904D14268CB021A4342
:1031F000426004E042680123DB029A434260704768
:10320000012904D1426801231A43426003E0426865
:10321000520852004260704710B50A4641682024A7
:103220000B46A3431946202313401943416010BDA8
:10323000012904D1426802231A43426003E0426834
:1032400002239A434260704710B50A46416804243D
:103250000B46A3431946042313401943416010BD94
:10326000012904D1426810231A43426003E04268F6
:1032700010239A4342607047012904D14268082311
:103280001A43426003E0426808239A434260704751
:1032900002218160704704218160704701218160B3
:1032A000704708218160704710B5B4B0044674A21D
:1032B00011685068926833923191329073A211680C
:1032C0005068926830922E912F9073A207CA2BAB50
:1032D00007C3202273A123A8FCF7A2FF79A207CA83
:1032E00020AB07C330227AA114A8FCF799FF84A170
:1032F0004B680A688868C9681193109213911290FC
:1033000083A207CA0DAB07C384A103C90C910B901C
:1033100084A31A681B1D0BCB0A930792099108908E
:1033200084A39A6819685868DB680693059203912C
:10333000049084A207CA6B4607C3204631380300B5
:1033400001F029F8130B17232F3B47535F6B9B9B0F
:103350009B9B9B9B9B77838F9B000B207C490870DA
:103360000846027831A97B48FCF75AFF00F04AFB77
:1033700083E00C2076490870084602782EA975482B
:10338000FCF74EFF00F03EFB77E00C207049087020
:10339000084602782BA96F48FCF742FF00F032FB89
:1033A0006BE020206A4908700846027823A9694822
:1033B000FCF736FF00F026FB5FE009206449087047
:1033C000084602780DA96348FCF72AFF00F01AFBB3
:1033D00053E00C205E4908700846027820A95D4839
:1033E000FCF71EFF00F00EFB47E02E205849087046
:1033F0000846027814A95748FCF712FF00F002FBB8
:103400003BE00E20524908700846027810A9514846
:10341000FCF706FF00F0F6FA2FE007204C49087091
:10342000084602780BA94B48FCF7FAFE00F0EAFACE
:1034300023E00F20464908700846027807A945484E
:10344000FCF7EEFE00F0DEFA17E00F2040490870AE
:103450000846027803A93F48FCF7E2FE00F0D2FAE2
:103460000BE00B203A490870084602786946394853
:10347000FCF7D6FE00F0C6FA00BF00BF34B010BDA6
:1034800041542B4350494E3F0D0A000041542B43F9
:103490005245473D320D0A0041542B4345524547A2
:1034A0003F0D0A0041542B5149435347503D312CA5
:1034B000312C22434D4E4554222C22222C22222CE8
:1034C000300D0A0041542B51494143543F0D0A002D
:1034D00041542B51494F50454E3D312C302C2254F4
:1034E0004350222C22312E39342E3132352E3132B6
:1034F00034222C383838382C302C310D0A0000009A
:1035000041542B514953454E443D300D0A000000B3
:1035100041542B4353510D0A0000000048656C6C68
:103520006F1A000041542B5149434C4F53453D30D5
:103530000D0A000041542B514944454143543D314B
:103540000D0A000041542B51434349440D0A000029
:103550006700002020170020F0B585B00446002643
:10356000002500BF39E0002531E06800215C681CBF
:103570004000205C81420FDC6800215C681C400038
:10358000205C814222D1680000194178681C40000B
:1035900000194078814219DD6800275C6800001935
:1035A00040780390681C4000205C69006054681CEF
:1035B000400000194078690009194870681C4000F3
:1035C0002754691C49000919039848706D1C0C2088
:1035D000801B401EA842C8DC761C0C2EC3DB01A851
:1035E000FFF716FC002833D1002622E07000205C93
:1035F0006946C97988420CDC7000205C6946C9794B
:10360000884215D17000001940786946097A8842CD
:103610000EDD7000215C6846017070000019417871
:1036200068464170002181700098FFF74FFB02E06F
:10363000761C0C2EDADB00BF0C2E09D121786846EF
:10364000017061784170002181700098FFF73EFBA6
:1036500005B0F0BD10B501F0C7FC02F0BDFB01F0F4
:10366000D3FC10BD014802490860704700127A007F
:103670001C010020014802490860704700127A00CE
:103680001C0100203DE00021C9431E48006801F0F4
:10369000A0FF0446002C34D11B48007801281ED11D
:1036A0001A49087040211A48FEF707FE19480078A9
:1036B00001280BD018480078002807D1FDF726FD17
:1036C00000281ED10120134908701AE01148007823
:1036D000012816D11148006801F05DFF11E00A4889
:1036E000007800280DD10949087040210848FEF7EC
:1036F000E2FD08480078002803D00848006801F07F
:103700004AFFC0E7180000200800002050000020F9
:10371000400D0040780000207900002020000020AB
:1037200070B586B00646002001900025FDF72CF804
:10373000FDF75AF83046FCF7DFFF0120FCF7FCFFED
:1037400000BF002416E0FDF749F80020610002AA3E
:103750005052FDF773F8002809D1FDF70FF861000A
:1037600002AA5052600002A9085A451900E003E07D
:10377000601CC4B2082CE6DB00BF082C00D1ED08A9
:103780002846FDF76BF80190019806B070BD000067
:10379000084A916900BF0F221205904200D91046D5
:1037A00000BF044A92698A1A1202120A8242F8D3AE
:1037B0007047000000E000E070B504460D467D262D
:1037C000B60109E0002D03D0A847002800D070BD45
:1037D0003046FFF7DDFF641E002CF3D100BFF6E793
:1037E00010B503460448834200D90346DC00204656
:1037F000FFF7CEFF10BD0000A086010010B576488F
:1038000000F0E9FB012813D1734800F038FC0128CF
:10381000F9D17248007801280BD06F4800F04BFCBA
:10382000C1B26F480488601C6D4A10806D48015514
:10383000ACE0694800F03FFC6B4908706B480078C9
:10384000030000F0A8FD0B070F1B27333F4E5F68F6
:103850007B82A20064480078722802D1012063496B
:10386000087092E060480078652803D102205F4923
:10387000087002E000205D49087086E05A48007830
:10388000632803D103205949087002E000205749FA
:1038900008707AE054480078762803D10420534910
:1038A000087002E00020514908706EE04E48007830
:1038B000222803D105204D49087002E000204B4921
:1038C000087062E0484800782C2806D1002044495E
:1038D000088006204549087002E00020434908702E
:1038E00053E03F480088012805DA3D480088401C25
:1038F0003B49088005E007203C4908700020384912
:10390000088042E03848007830383949088008207B
:103910003649087039E0344800780D280AD0344818
:1039200000880A2148433049097830394018304925
:10393000088002E009202D49087026E0002028496F
:1039400008800A20294908701FE025480088284976
:103950000988884209DA24490A7821490888411CE3
:103960001F4B19801F490A540EE000221C49088889
:10397000411C1B4B19801B490A541E48006801F06A
:103980000AFE00201949087000BF00BF124800F06D
:1039900060FB01281FD1104800F080FB01281AD1DC
:1039A000154800781549097888420ADA12480478DF
:1039B000601C114A10701248015D074800F080FB3E
:1039C00006E000200C4908700021034800F04BFB82
:1039D000014800F06DFB10BD00740140780000202C
:1039E0006200002020150020760000206E000020DC
:1039F00064000020200000206600002067000020F6
:103A00002017002010B500200D4908700D4800F067
:103A100041FB0C4800F04CFB01210A4800F0E6FA9B
:103A20000121084800F01FFB05480478601C044A87
:103A300010700548015D034800F042FB10BD000016
:103A400066000020007401402017002010B5574880
:103A500000F0C1FA01287DD1544800F010FB012884
:103A60007DD1524800F027FB514908705148007839
:103A7000002806D001281AD0022825D003286DD1AD
:103A800049E04B4800784C49097888420ED1002023
:103A90004A49088001204749087045490A78474942
:103AA0000888411C454B198045490A5456E0404955
:103AB0000A7842490888411C404B198040490A5401
:103AC00002203C49087049E03C480088401E3C49BF
:103AD000085C102803D108203A49088004E03448E3
:103AE0000078401D37490880364800880121490286
:103AF00088420CDC2E490A7830490888411C2F4B3B
:103B000019802F490A5403202A49087002E0002036
:103B10002849087022E0294800882A4909888842F3
:103B200008DA23490A7825490888411C234B198063
:103B300023490A54214800882249098888420CDB1D
:103B400000211A4800F052FA00201A4908701E4855
:103B5000006800E003E001F01EFD00BF00BF134855
:103B600000F077FA01281FD1104800F097FA0128D9
:103B70001AD1164800781649097888420ADA13489B
:103B80000478601C114A10701248015D074800F06B
:103B900097FA06E000200D4908700021034800F064
:103BA00062FA024800F084FA10BD0000007801407B
:103BB0006F000020740000207500002068000020C5
:103BC000201900206A000020700000206C000020F6
:103BD0006D000020201B002010B500200D4908704A
:103BE00001210D4800F002FA01210B4800F03BFAD8
:103BF000094800F04FFA084800F05AFA05480478DE
:103C0000601C044A10700548015D034800F058FA32
:103C100010BD00006C00002000780140201B002037
:103C2000F3B585B00F460598FCF724FC05463846E9
:103C3000FCF720FC06462946FCF72AFB04907F216E
:103C4000C9050498FCF750FC13D20498FCF738FC23
:103C500005460022094BFCF7FEFB0022084B0191B0
:103C60000090FCF753FB03910290FCF70BFC044619
:103C700000E00024204607B0F0BD00000000F03F47
:103C80000000E03F30B505460C462846616800F06C
:103C90003DF92846A16800F048F92846E16800F09F
:103CA00038F92846616900F064F9617C284600F023
:103CB000AAF9217C284600F0B3F92178284600F0C3
:103CC00095F96178284600F0B8F9A178284600F007
:103CD000CAF9A17E284600F040F9E17E284600F0AE
:103CE0006EF9A17C284600F02CF9217E284600F0D0
:103CF0004DF9617E284600F055F930BD70B588B0A9
:103D000006460C4615467A48864228D1A068FDF73B
:103D10009FF80120FDF788F801217648FDF7EEF8BD
:103D2000A068002804D0012808D0022815D10EE090
:103D3000A9682068FFF774FF02900FE00120FDF7EB
:103D400053F9E9682068FFF76BFF029006E02968E5
:103D50002068FFF765FF029000E000BF63E066485F
:103D6000864229D1A068FDF795F80120FDF77EF87D
:103D700001216048401CFDF7C1F8A068002804D06C
:103D8000042808D0082815D10EE0A9682068FFF79C
:103D900047FF02900FE00120FDF726F9E96820684F
:103DA000FFF73EFF029006E029682068FFF738FF22
:103DB000029000E000BF36E0504886420AD101215F
:103DC0004C48801CFDF79AF8A9682068FFF728FF87
:103DD000029028E04A4886420AD101214548C01C89
:103DE000FDF78CF8A9682068FFF71AFF02901AE027
:103DF000444886420AD101213E48001DFDF77EF865
:103E0000A9682068FFF70CFF02900CE03E4886424C
:103E100009D101213748401DFDF770F8A9682068D5
:103E2000FFF7FEFE02902079012810D14020039078
:103E30006079012802D1102004903FE060790228C7
:103E400002D12020049039E00020049036E020794F
:103E5000022810D1802003906079012802D110201F
:103E600004902BE06079022802D12020049025E004
:103E70000020049022E0207900280FD1039060797F
:103E8000012802D11020049018E06079022802D1A4
:103E90002020049012E0002004900FE0C020039046
:103EA0006079012802D11020049007E0607902288F
:103EB00002D12020049001E000200490A079002885
:103EC00001D1069002E0FF200130069000216846F3
:103ED000017141718171417501758177C17781757A
:103EE0000177417701A93046FFF7CCFE08B070BDDD
:103EF000002001400800000300680140006C014000
:103F00000070014000740140007801408AB2826173
:103F1000704710B50A46016830240B46A343194682
:103F2000302313401943016010BD10B50A460168E3
:103F3000C0240B46A3431946C02313401943016014
:103F400010BD012904D1026802231A43026003E074
:103F5000026802239A4302607047012904D1026873
:103F600008231A43026003E0026808239A430260B0
:103F7000704710B50A460168FF2401340B46A3437D
:103F80001946234613401943016010BD012904D18D
:103F9000026801231A43026003E0026852085200DB
:103FA00002607047012904D102684B041A43026081
:103FB00004E0026801235B049A4302607047012910
:103FC00004D1026804231A43026003E00268042358
:103FD0009A430260704701464868FF220132104050
:103FE000002801D0012070470020FCE7012904D1FE
:103FF00042680B021A43426004E04268FF23013327
:104000009A4342607047012904D142688B021A43E7
:10401000426004E0426801239B029A434260704779
:10402000012904D14268CB021A43426004E042688D
:104030000123DB029A4342607047012904D14268A0
:1040400002231A43426003E0426802239A4342601B
:10405000704701464868C007C00F002801D0012002
:1040600070470020FCE7012904D1426801231A436C
:10407000426003E0426852085200426070470146C5
:104080008868FF2201321040002801D001207047CB
:104090000020FCE7FF2101318160704701468868FC
:1040A000C007C00F002801D0012070470020FCE7A6
:1040B00001218160704701460869C005C00D704745
:1040C000CA05D20D4261704710B504460121204651
:1040D000FFF737FF01212046FFF758FF10BD000012
:1040E000F0B58BB004460D4616461F465F48201AB1
:1040F00001D1009006E02D20C002201A800A401C49
:10410000C0B2009068460078030000F044F906044D
:1041100035475769829B00200A90002208215448A5
:10412000FCF7B8FB002210215148FCF7B3FB00223A
:10413000FF2101314E484030FCF7ACFB0022012149
:1041400049024B484030FCF7A5FB012211024848C8
:104150004030FEF7C2F80122510245484030FEF7D8
:10416000BCF8092000F026F90221092000F0BAF974
:10417000092000F02FF966E000200A9000220821B3
:104180003B484038FCF786FB002210213848403875
:10419000FCF780FB0A2000F00DF954E00022012119
:1041A00009033448FCF776FB00220121490331481A
:1041B000FCF770FB0B2000F0FDF844E00022012129
:1041C00089022C484030FCF765FB00220121C9021E
:1041D00028484030FCF75EFB0C2000F0EBF832E0A2
:1041E00000220121490222488038FCF753FB0022BB
:1041F000012189021E488038FCF74CFB0D2000F09D
:10420000D9F802210D2000F06DF90D2000F0E2F840
:1042100019E00022FF21013116484038FCF73AFB33
:1042200000220121490213484038FCF733FB0E20DD
:1042300000F0C0F802210E2000F054F90E2000F02A
:10424000C9F800E000BF00BF089508A806714771D3
:1042500008A91098887101A8FCF70CFD01AA08A90B
:104260002046FFF74BFD0BB0F0BD000000200140E1
:10427000400D0040400C0040012806D10649496A23
:1042800001221143044A516205E00349496A490881
:104290004900014A5162704700F801400146064A50
:1042A000506A0E2302469A4310460E220A401043DB
:1042B000014A50627047000000F8014000B507480D
:1042C0004368180CD94389B2884203D1D8B200F0B0
:1042D00019F802E01F2000F015F800BD40FBFF1F99
:1042E000012806D10649496980221143044A5161D7
:1042F00005E00349496980229143014A51617047B1
:1043000000F801400146054A5069800980018A068B
:10431000920E1043014A50617047000000F80140BE
:1043200010B520210D48FDF7C8FF0120FFF7F8F96F
:104330000B49086020210948FDF7BDFFFF2101312D
:104340000648FDF7BAFF0620FFF7EAF905490860BD
:10435000FF2101310148FDF7AEFF10BD000D004007
:10436000480000204C0000202021020C01D0102128
:104370001046020A01D010460839020901D0104641
:10438000091F820801D01046891E420801D0881EEC
:104390007047081A704730B47446641E2578641C50
:1043A000AB4204D3635D5B00E31830BC18471D4685
:1043B000F8E70000002809DBC206D20E0121914077
:1043C000034A1160BFF34F8FBFF36F8F7047000038
:1043D00080E100E0002809DB00BF00BFC206D20E6A
:1043E00001219140024A116000BF00BF70470000E8
:1043F00000E100E010B5002819DB1A4A03231B0274
:10440000D21883089B00D2588307DC0EFF23A340F9
:104410009A438B071B0E8407E40EA3401A43114BEB
:10442000032424021B198408A4001A5118E00E4A20
:1044300003071B0F083B9B089B00D2588307DC0E29
:10444000FF23A3409A438B071B0E8407E40EA3406F
:104450001A43054B0407240F083CA408A4001A5172
:1044600010BD000000E100E01CED00E010B50028E8
:1044700019DB1A4A03231B02D21883089B00D25867
:104480008307DC0EFF23A3409A438B071B0E840790
:10449000E40EA3401A43114B032424021B19840881
:1044A000A4001A5118E00E4A03071B0F083B9B0893
:1044B0009B00D2588307DC0EFF23A3409A438B074F
:1044C0001B0E8407E40EA3401A43054B0407240F78
:1044D000083CA408A4001A5110BD000000E100E04F
:1044E0001CED00E010B5002819DB1A4A03231B025B
:1044F000D21883089B00D2588307DC0EFF23A34009
:104500009A438B071B0E8407E40EA3401A43114BFA
:10451000032424021B198408A4001A5118E00E4A2F
:1045200003071B0F083B9B089B00D2588307DC0E38
:10453000FF23A3409A438B071B0E8407E40EA3407E
:104540001A43054B0407240F083CA408A4001A5181
:1045500010BD000000E100E01CED00E010B50028F7
:1045600019DB1A4A03231B02D21883089B00D25876
:104570008307DC0EFF23A3409A438B071B0E84079F
:10458000E40EA3401A43114B032424021B19840890
:10459000A4001A5118E00E4A03071B0F083B9B08A2
:1045A0009B00D2588307DC0EFF23A3409A438B075E
:1045B0001B0E8407E40EA3401A43054B0407240F87
:1045C000083CA408A4001A5110BD000000E100E05E
:1045D0001CED00E010B5002819DB1A4A03231B026A
:1045E000D21883089B00D2588307DC0EFF23A34018
:1045F0009A438B071B0E8407E40EA3401A43114B0A
:10460000032424021B198408A4001A5118E00E4A3E
:1046100003071B0F083B9B089B00D2588307DC0E47
:10462000FF23A3409A438B071B0E8407E40EA3408D
:104630001A43054B0407240F083CA408A4001A5190
:1046400010BD000000E100E01CED00E010B5002806
:1046500019DB1A4A03231B02D21883089B00D25885
:104660008307DC0EFF23A3409A438B071B0E8407AE
:10467000E40EA3401A43114B032424021B1984089F
:10468000A4001A5118E00E4A03071B0F083B9B08B1
:104690009B00D2588307DC0EFF23A3409A438B076D
:1046A0001B0E8407E40EA3401A43054B0407240F96
:1046B000083CA408A4001A5110BD000000E100E06D
:1046C0001CED00E00146002900D17047C8B2002867
:1046D00004D0C8B2114A105C401CF6E7FF2000026B
:1046E0000840002807D0FF200002084000120B4AB3
:1046F000105C0930E9E7FF2000040840002807D0DB
:10470000FF20000408400014044A105C1130DCE76C
:10471000080E024A105C1930D7E70000E061000083
:1047200002E008C8121F08C1002AFAD1704770477A
:10473000002001E001C1121F002AFBD170470000D8
:1047400003490868884201D0012070470020FCE737
:10475000F4000020FEB5044615461E460A9F20467A
:1047600014304060006000BF256266620898A06255
:104770000998E0622321E26AA06A00F097FDE16AED
:10478000A06A4018021F606A0190206A114B0090D5
:10479000019900F009FCE0613620075535200755E6
:1047A0000020A0630B98E0630B9820640020206336
:1047B00000213420015500202067606700902346C7
:1047C000054A214601902046443001F0A2FB00201A
:1047D000FEBD0000F5590000C15C0000FFB581B0CE
:1047E00004460E4617460A986072607A40084000F8
:1047F0006072E66127620020A06204986062002572
:1048000006E0EA0021461431501800F057FC6D1CF8
:10481000012DF6DB05B0F0BD10B5024600200146C3
:104820000EE0CC0013461433E0180468436863605C
:104830004468036823604060006000BF481C014674
:104840000129EEDB10BD000010B501210806FCF7C0
:1048500055FBFF200130FCF741FB0120FCF72AFB50
:104860000020FEF7A3F80020FEF7C4F80020FEF7B2
:104870008DF80420FEF7AEF80020FEF7CBF80120FB
:10488000C003FEF77DF8FEF70DF90120FEF7E2F810
:104890001420002809DBC206D20E012191400F4AE4
:1048A0001160BFF34F8FBFF36F8F00BF0221142041
:1048B000FFF754FE142000280ADB00BF00BFC20629
:1048C000D20E01219140054A803A116000BF00BF1D
:1048D00000BF0120FEF7ACF8002010BD80E100E031
:1048E0001CB562B600200A2302465549009055A027
:1048F00001F0E8FA5649086000207D23DB000246FB
:104900005449009054A001F0DDFA56490860002097
:104910007D231B0102465449009054A001F0D2FAB5
:10492000554908600122002154A000F00FFE5549AE
:1049300008600122002154A000F008FE54490860DC
:104940000122002153A000F001FE56490860012217
:10495000002150A000F0FAFD534908600122002117
:1049600052A000F0F3FD5549086014215448FCF7AB
:10497000D3F80A200090FF2301330022514901900F
:1049800051A001F009F85149086008460068002864
:1049900003D00846006801F059F90A20009001236D
:1049A0005B0200224A4901904AA000F0F5FF4E49FF
:1049B000086008460068002803D00846006801F037
:1049C00045F90A200090FF23013300224749019056
:1049D00047A000F0E1FF4C49086008460068002845
:1049E00003D00846006801F031F90A200090FF2347
:1049F000013300224549019045A000F0CDFF474911
:104A0000086008460068002803D00846006801F0E6
:104A10001DF904214248FDF7BFF904214048FDF784
:104A200040FC404908700A48006801F095FAFCF71C
:104A30006DFB002802D101203B49087000201CBDFD
:104A40000561000074696D65725F31306D7300003F
:104A50000C0000203161000074696D65725F317374
:104A600000000000100000204561000074696D65C1
:104A7000725F3273000000001400002073656D5FE8
:104A8000316D73001800002073656D5F3173000095
:104A90001C00002073656D5F756172745F726563E1
:104AA00076000000700000202000002073656D5F1C
:104AB0007274635F74696D656F7574002400002003
:104AC0000030014085360000544D000028000020D1
:104AD00039230000475052535F436D6450726F6337
:104AE000657373696E6700002C0000205D1700007D
:104AF0004556435F48616E645368616B6550726FE1
:104B000063657373696E67003000002061300000D8
:104B10005254435F54696D654F7574003C0000202A
:104B2000400C0040080000207800002010B504462A
:104B300000F0A2F8FFF7D4FE10BD000030B5024629
:104B40000B460C4811E01478521C604000210AE02A
:104B5000C407E40F002C04D04410074D6C402046DD
:104B600000E04010491C0829F2DB1C465B1E002CAB
:104B7000E9D130BDFFFF000001A000007047000038
:104B800030B51B4C436824681919884216D04B88ED
:104B9000002B13D1174B1B6899420FD0164B1B6883
:104BA0008B4201D1144B18604B684360104B1B685B
:104BB000C31A0F4D4C682D686419A3600C4C8368B0
:104BC00024681A19824212D05388002B0FD10A4B45
:104BD0001B68834201D1084B1A6043685360044B41
:104BE0001B68D41A024D43682D685B199C6030BD68
:104BF0008C00002090000020940000201CB51420A0
:104C0000052101235B02002200910190044905A0C7
:104C100000F0C2FE0446204601F018F81CBD00005A
:104C20002D4B00006D61696E0000000070B5094CED
:104C30000BE009A0216800F03AFA60688047054659
:104C4000294609A000F033FA08340A488442F0D318
:104C500070BD00000C630000696E697469616C6965
:104C60007A652025730000003A256420646F6E6524
:104C70000A0000001463000070B50AA000F017FAE3
:104C8000104C0BE010A0216800F011FA606880471A
:104C90000546294610A000F00AFA0834114884425B
:104CA000F0D370BD646F20636F6D706F6E656E744E
:104CB0007320696E697469616C697A6174696F6E79
:104CC0002E0A000014630000696E697469616C69E2
:104CD0007A652025730000003A256420646F6E65B4
:104CE0000A0000001C63000010B5FBF7F5F904464C
:104CF00004480088401C00B2024908802046FBF7A7
:104D0000EFF910BDE400002010B5FBF7E5F904460B
:104D10000D480088401E00B20B490880084600215B
:104D2000415E00290CDC0020074908802046FBF783
:104D3000D7F906480068002805D000F06FFB02E0B4
:104D40002046FBF7CDF910BDE4000020E80000206C
:104D500070B50546002D00D170BD1F480068854222
:104D600003D31E480068854200D3F5E72C460C3C6F
:104D70000021C9431A4800F02CFC6088002804D0A8
:104D80002088F5214901884208D016A000F08FF94B
:104D90002388628821461AA000F089F900206080EB
:104DA000F5204001208022480068844201D220483A
:104DB0000460094960680968611A401A1D49096858
:104DC000081A1C4908602046FFF7DAFE044800F084
:104DD000E2FB00BFC0E700008C0000209000002034
:104DE000BC1E0020746F20667265652061206261C0
:104DF00064206461746120626C6F636B3A0A000026
:104E00006D656D3A203078253038782C20757365C3
:104E10006420666C61673A2025642C206D616769A7
:104E20006320636F64653A203078253034780A0057
:104E3000940000209C0000200048704720050020BE
:104E4000004870472015002070B5FDF719FDFEF7EA
:104E500009FC7D21C90014480068FBF7B7F9044636
:104E6000601E1249884200D90CE0601E104948615A
:104E70000321081FFFF7FAFA00200D498861072077
:104E8000086100BFFFF7E0FC0A4800F05BFEFFF797
:104E9000CDFEFFF7D5FF0446FFF7CEFF05462146BE
:104EA00000F08AFC70BD00001C010020FFFFFF0025
:104EB00000E000E07D4B0000044613A0E16900F033
:104EC000F6F815A0A16900F0F2F817A0616900F0EA
:104ED000EEF819A0216900F0EAF81BA0E16800F0E3
:104EE000E6F81DA0A16800F0E2F81FA0616800F0DC
:104EF000DEF821A0216800F0DAF82348016823A039
:104F000000F0D5F800BFFEE77073723A20307825C4
:104F10003038780A000000002070633A203078258D
:104F20003038780A00000000206C723A2030782572
:104F30003038780A000000007231323A203078258B
:104F40003038780A000000007230333A203078257B
:104F50003038780A000000007230323A203078256C
:104F60003038780A000000007230313A203078255D
:104F70003038780A000000007230303A203078254E
:104F80003038780A00000000E80000206861726490
:104F9000206661756C74206F6E2074687265616440
:104FA0003A2025730A000000FFB50C46101DC0080A
:104FB000C00040380146002503E00A4EAF00CE5144
:104FC0006D1C102DF9D30C6200264E628E62CE62EB
:104FD0000E634B63009E8E6301263606CE6304B0DB
:104FE000F0BD0000EFBEADDE10B5FBF775F804466E
:104FF00004480078401C034908702046FBF770F80D
:1050000010BD00008800002010B5FBF765F80446CD
:1050100004480078401E034908702046FBF760F8FA
:1050200010BD00008800002070B5044620680546C9
:10503000143D284600F0C4FD002070BDF7B50546BC
:105040000C46204600F01AFE0298002802D00128E3
:1050500022D105E021461431284600F047F81BE034
:105060002E680EE03746143F3520015DC05D814259
:1050700006DA214614313846143000F037F802E0E1
:105080003668AE42EED100BFAE4204D121461431A3
:10509000284600F02BF800BF00BF0020FEBD10B571
:1050A00004462046143000F003F8002010BD70477D
:1050B0004060006070474060006070474060006082
:1050C00070470268516002680A600160486070477A
:1050D0000268516002680A600160486070470268B7
:1050E000516002680A600160486070474268116060
:1050F00042684A604160086070470146086888421B
:1051000001D1012070470020FCE701460868884271
:1051100001D1012070470020FCE70268416851601E
:105120004268016811604060006070470268416831
:105130005160426801681160406000607047000083
:10514000F8B50546002D00D1F8BDE81C8508AD0076
:105150004F480068854201D90020F5E70C2D00D2A8
:105160000C250021C9434B4800F033FA4A48006837
:105170004A490968461A7FE04848006884196088EF
:10518000002875D130460C306168081AA8426FD3E8
:1051900030460C306168091A28461830814230D3F5
:1051A00030460C30401900903C48016800980F18B8
:1051B000F520400138800020788060687860BE600B
:1051C00000986060012060803148796800680C3088
:1051D000814205D00098314A796812688918886040
:1051E0002F48016828460C3008182D4908602D48C2
:1051F00000680968884219D229480068294908606E
:1052000014E001206080254960680968611A401A2D
:105210002349096840182249086022480068096843
:10522000884203D21E4800681E490860F5204001EC
:10523000208019480068844213D107E016480068AE
:105240004068164909684018134908601248006808
:105250004088002805D01048006813490968884232
:10526000ECD10C4800F097F920460C306CE7FFE7D2
:105270000A4800688019466805480068401BB0422B
:1052800000D979E7034800F086F900205CE70000C8
:1052900098000020BC1E0020940000208C000020FC
:1052A0009C000020A000002090000020F7B50546DB
:1052B000019EF4B2042A17D38607B60F002E13D12D
:1052C00001462602264333461E04334304E008C148
:1052D00008C108C108C1103A102AF8D201E008C17B
:1052E000121F042AFBD20D4601E02C706D1C1646DD
:1052F000521E002EF9D1FEBDF8B506460F463046C7
:1053000000F044F80546E868FFF71AFF0446002C51
:1053100000D1F8BD00212046EA68FFF7C7FF2672DA
:105320000020607208223946204600F029FAFAF778
:10533000D3FE009021460C31281DFFF7C2FE0098D5
:10534000FAF7CEFE2046E4E770B50446002020724E
:10535000FAF7C2FE054620460C30FFF7DEFE28466F
:10536000FAF7BEFE2046FFF7F3FC70BD70B50446A9
:1053700000202072FAF7B0FE054620460C30FFF7F9
:10538000CCFE2846FAF7ACFE70BD000002460021B4
:1053900008E00801054B185C904202D10801C018D2
:1053A0007047491C0429F4DB0020F9E7A400002021
:1053B000F7B582B004460D4600262846FFF7E6FF03
:1053C0000746FFF791FC7E6803E030460C380090FA
:1053D0003668381D8642F8D1FFF796FC80202843B6
:1053E000207208222046049900F0CAF9FAF774FEE8
:1053F000019021460C31381DFFF763FE0198FAF742
:105400006FFE05B0F0BD0146087A802210400028EA
:1054100001D0012070470020FCE70000F8B5FAF742
:105420005BFE074618480088002827D11748006807
:10543000FFF748F9461EF000154908580446143C89
:1054400014480068844218D013490E70114805684A
:10545000046012480078002809D121461C312846F2
:105460001C30FAF740FE3846FAF73AFEF8BD2146FE
:105470001C3128461C30FAF736FE00BF3846FAF7D2
:105480002FFE00BFF2E70000E4000020F000002043
:10549000DC1E0020E8000020EC0000208800002036
:1054A00070B50446FAF718FE05463420005D000981
:1054B000000101210843342108553522125DD20034
:1054C0000A4BD018214614314268116042684A6084
:1054D0004160086000BF0649A06B096808430449A1
:1054E00008602846FAF7FCFD70BD0000DC1E0020B5
:1054F000F000002070B50446FAF7EEFD05462046A0
:10550000143002684168516042680168116040606F
:10551000006000BF3521095DC9000A4A881801688A
:10552000814201D1012100E00021002905D0064877
:10553000A16B00688843044908602846FAF7D0FD4B
:1055400070BD0000DC1E0020F0000020F8B505460C
:105550000E46174629460220FFF7CEFE0446002CD1
:1055600001D12046F8BD2046FFF799FDA68367725A
:105570002046F7E7F8B504460D4616461F462A466C
:1055800002212046FFF714FF2046FFF788FDA6837F
:1055900067720020F8BD70B504460025FAF79CFD3F
:1055A000064620461430FFF7A8FD002805D1204606
:1055B0001430FFF739FD012502E0A08B401CA083C9
:1055C0003046FAF78DFD012D01D1FFF727FF0020AE
:1055D00070BD73B50546FAF77FFD0646A88B002817
:1055E00006DDA88B401EA8833046FAF779FD2AE035
:1055F0000198002805D13046FAF772FD0120C0431A
:105600007CBD00F0FBFA0446002020636A7A214644
:1056100028461430FFF712FD0198002809DD01AA81
:1056200000212046443000F02FFC2046443000F09A
:1056300093FC3046FAF754FDFFF7F0FE206B00288C
:1056400001D0206BDCE70020DAE7000008B509A0F4
:10565000FFF72DFD0AA0FFF72AFD12A00323012268
:105660001946009012A0FFF722FD19A0FFF71FFDB9
:1056700008BD00000A205C207C202F0A00000000EA
:105680002D205254202D2020202020546872656146
:1056900064204F7065726174696E6720537973740A
:1056A000656D0A004E6F762031382032303234007A
:1056B000202F207C205C202020202025642E2564A3
:1056C0002E2564206275696C642025730A00000031
:1056D0002032303036202D203230313920436F7067
:1056E0007972696768742062792072742D746872A7
:1056F000656164207465616D0A00000070B500F09A
:1057000065FB0646FFF7F0FA1B4805682CE02C46BF
:10571000143CA06A301A1949884224D22D682046C8
:10572000FFF77AF8FFF7F0FAE169206A884700F09E
:105730004DFB0646FFF7D8FA607A022108400028A0
:105740000CD0607AC007C00F002807D0607A4008EC
:1057500040006072204600F0FFFB05E0607A4008E0
:105760004000607200E002E003488542CFD100BFF4
:10577000FFF7CAFA70BD000004010020FFFFFF7FA1
:1057800070B50346002A15D018460C4600BF257890
:105790000570641C401C002D07D102E00025057037
:1057A000401C551E2A1EF9D102E0551E2A1EEED1BC
:1057B00000BF00BF184670BDF3B581B00546E81CB8
:1057C0008608B60002988708BF00182F08D9384607
:1057D0001838B04204D3B81B18381E49086005E0D9
:1057E00029461DA0029AFFF762FCFEBD294806600B
:1057F0000468F52040012080164800680C30606085
:105800000020A06060802349606809684018224930
:105810000860F52040010968088001201E490968D8
:1058200048800C4800680C301B49096848600948EA
:1058300000680C301849096888600023012217A10C
:105840001848FFF797FE134800681749086000BF23
:10585000CBE70000980000206D656D20696E6974CB
:105860002C206572726F7220626567696E206164B8
:10587000647265737320307825782C20616E642003
:10588000656E642061646472657373203078257876
:105890000A0000008C000020900000206865617004
:1058A00000000000BC1E00209400002010B5002065
:1058B0000B490880002405E0E1000A4A8818FFF738
:1058C000FAFB641C102CF7DB0F200749087000203E
:1058D00006490860064908600648FFF7ECFB10BD62
:1058E000E4000020DC1E0020EC000020E800002086
:1058F000F0000020F400002070B508480068FEF7B2
:10590000E1FE451EE800064908580446143C0548D7
:10591000046020461C30FAF71EFC70BDF000002029
:10592000DC1E0020E800002010B5002405E0E100A6
:10593000034A8818FFF7C2FB641C002CF7D010BD87
:10594000FC0000201FB5002405E0E1000C4A881887
:10595000FFF7B4FB641C002CF7D00A200421CA0115
:10596000084B00930192029103900023064A07A17D
:10597000084800F005F9074800F068F91FBD00006D
:1059800004010020D41F0020E15C000074696D65F3
:10599000720000005C1F0020FFB585B006460F4670
:1059A0001D4631460120FFF7A7FC0490049800280B
:1059B00001D109B0F0BD2846FFF7C2FB0446002C18
:1059C00004D10498FFF7C0FC0020F2E70E990F986D
:1059D00001950094029103903A463146079B049842
:1059E000FEF7B8FE0498E4E710B50446204600F040
:1059F0000BF910BD70B513480468FAF76DFB054646
:105A00002046FFF777FD042134200155204644301D
:105A100000F06FFA2046FFF7F6FC012806D1206F50
:105A2000002803D12046FFF7A1FC04E021461431F1
:105A30000548FFF74DFB2846FAF752FBFFF7EEFC4F
:105A400070BD0000E8000020F400002010E00024F9
:105A500009E0A00007490858002803D0A100054A22
:105A600050588047641C042CF3D300F005F800BFA5
:105A7000EDE70000AC1E002070B53CE0FAF72CFB0F
:105A80000546FEF75DFE002827D01E480068044644
:105A9000143C204614300268416851604268016835
:105AA00011604060006000BFFFF71EF9206F002802
:105AB00002D02046216F88472046FFF7A4FC01282A
:105AC00008D12046FFF752FCFFF71EF92846FAF7E7
:105AD00007FB70BDFFF718F903E02846FAF700FB53
